S01B000054657374654D6F64427573527475536C6176652E7372656384
S11300000C942A000C943C000C943C000C943C008E
S11300100C944D040C943C000C943C000C943C0057
S11300200C943C000C943C000C943C000C943C005C
S11300300C943C000C9496030C940E040C943C0019
S11300400C943C000C943C000C943C000C943C003C
S11300500C943C0011241FBECFE5D8E0DEBFCDBF19
S113006023E0A0E6B0E001C01D92A133B207E1F79E
S11300700E949A040C947C050C9400008DEA83BDC4
S113008014BC85E085BD89B7806889BF0895AC013B
S113009020E030E080E090E012C0BC0164277527C6
S11300A060FF07C09695879561E0862760EA9627EA
S11300B002C096958795569547952F5F3F4F2830F8
S11300C0310558F30895CF93DF939C012627C92F58
S11300D0DD27C90199270E9447008C279D27DF91BE
S11300E0CF910895EF92FF920F931F93CF93DF93D5
S11300F07C018B01C0E0D0E08FEF9FEF07C0F701D8
S1130100EC0FFD1F60810E9463002196C017D10788
S1130110B0F3DF91CF911F910F91FF90EF9008956D
S1130120E0E6F0E086E090E09383828381E08183DF
S1130130108210922E0310922D031092300310920D
S11301402F030895813049F427E030E030936300B1
S11301502093620091E090936402833049F427E095
S113016030E0309363002093620093E09093640244
S1130170853049F427E030E0309363002093620037
S113018095E090936402863049F427E030E03093A0
S113019063002093620096E0909364028F3001F52F
S11301A0E0E6F0E0228530E0322F22279385292BE8
S11301B0A901569547955695479556954795485F95
S11301C05F4F5383428327703327232B31F04F5FD4
S11301D05F4F50936300409362009FE090936402EA
S11301E0803181F4E0E6F0E0828590E0982F882762
S11301F02385822B0496880F991F9383828380E141
S1130200809364020895CF93DF93C0E6D0E0998190
S1130210909365018068809366016093670163E051
S113022070E085E691E00E947200809368019093EB
S1130230690185E090E09D838C8383E088830E943C
S11302403E00DF91CF910895EF92FF920F931F9399
S1130250CF93DF930091620010916300E80121972E
S1130260BE0186E690E00E947200AC015527C05A98
S1130270DF4F2E8130E04217530709F04EC2292F79
S113028030E0F801E05AFF4F868190E028173907E3
S113029009F043C280916402813009F06FC0E0E646
S11302A0F0E0808590E0982F88272185AC01422BCF
S11302B0DA01228530E0322F22278385B901682BA9
S11302C0CB01840F951F8536910508F053C08091AA
S11302D061008093650181E080936601109268015A
S11302E080E090E021E030E0C3E0D0E01CC0FC01FD
S11302F0EA0FFB1FE753FD4F4081442331F0FE0119
S1130300EB59FE4F4081422B4083220F331F2115AE
S1130310E1E03E0739F42196FE01EB59FE4F1082CD
S113032021E030E001968617970708F38E010F5FEE
S11303301F4F8DEF800F0F2EF0E6EF2EF0E0FF2E13
S1130340F02D80936701B80185E691E00E94720068
S1130350F801EB59FE4F8083FE01E959FE4F90836B
S11303602396DD27F701D583C48383E080830E942D
S11303703E0004C062E081E00E94030180916402B7
S1130380833009F05BC0E0E6F0E0808590E0982FD0
S113039088272185822BDC01628570E0762F662711
S11303A02385622BAB01860F971F0197C29708F034
S11303B041C0809161008093650183E08093660170
S11303C0862F880F8093670180E090E0C3E0D0E03F
S11303D013C0FC01EA0FFB1FEE0FFF1FEB59FD4F8B
S11303E020813181FE01EB59FE4F3083FE01EA5931
S11303F0FE4F2083229601968417950750F3660FCB
S1130400771F6D5F7F4F85E691E00E947200E0E602
S1130410F0E0DE01AB59BE4F8C93DE01AA59BE4F0A
S11304209C932296DD27D583C48383E080830E9436
S11304303E0004C062E083E00E94030180916402F4
S1130440853009F042C0E0E6F0E03085832F90E08B
S1130450982F88272185822B8436910590F5409129
S11304606A004F3F31F4FC01E753FD4F51E05083E4
S113047004C0FC01E753FD4F1082C0E6D0E089813F
S11304808093650185E08093660130936701209332
S11304906801409369018B8580936A0166E070E08E
S11304A085E691E00E94720080936B0190936C0149
S11304B088E090E09D838C8383E088830E943E00E3
S11304C004C062E085E00E940301809164028630EA
S11304D009F040C0E0E6F0E05085852F90E0982FC9
S11304E088274185842B8233910580F5EF0172853D
S11304F0272F30E0322F22276385262B880F991F60
S1130500FC01EB59FD4F3183208389818093650180
S113051086E080936601509367014093680170936D
S1130520690160936A0166E070E085E691E00E94EB
S1130530720080936B0190936C0188E090E09D833E
S11305408C8383E088830E943E0004C062E086E0DE
S11305500E940301809164028F3009F06DC0E0E6CF
S1130560F0E01085812F90E0982F8827B185AC01A9
S11305704B2BBA01A2852A2F30E0322F2227E385A4
S1130580C9018E2BEC01840F951F019784369105C8
S113059008F04EC080916100809365018FE08093E4
S11305A0660110936701B0936801A0936901E09319
S11305B06A0140E050E021E030E0A7E0B0E020C074
S11305C0FD01E05AFF4F868190E082239323892B1B
S11305D031F081E0FB01E753FD4F808304C0FB0150
S11305E0E753FD4F1082220F331F2115F1E03F071F
S11305F019F4119621E030E06F5F7F4F4F5F5F4F3A
S11306004C175D07E8F266E070E085E691E00E9431
S11306107200E0E6F0E080936B0190936C0188E057
S113062090E09583848383E080830E943E0004C02D
S113063062E08FE00E94030180916402803109F03E
S11306406EC0A0E6B0E018961C911897812F90E038
S1130650982F88271996DC911997FC01ED2BAF018F
S11306601A96CC911A972C2F30E0322F22271B9602
S1130670AC91C9018A2BBC018E0F9F1F0197C297B1
S113068008F046C0809161008093650180E1809309
S1130690660110936701D0936801C0936901A09328
S11306A06A0120E030E01CC0F901EE0FFF1FE95998
S11306B0FF4F868190E0982F8827F9013496EE0F3A
S11306C0FF1FE05AFF4FE6818E2BFA01EE0FFF1F4A
S11306D0EB59FD4F918380834F5F5F4F2F5F3F4FF7
S11306E02617370708F366E070E085E691E00E947C
S11306F07200E0E6F0E080936B0190936C0188E077
S113070090E09583848383E080830E943E0007C049
S113071062E080E10E94030102C00E949000DF9128
S1130720CF911F910F91FF90EF9008951F920F9218
S11307300FB60F9211242F933F934F935F936F93B0
S11307407F938F939F93AF93BF93CF93DF93EF9355
S1130750FF9380912D0390912E032CB1FC01E05A5C
S1130760FF4F268320916000211105C0892B19F4C5
S11307700E943E0001C014BC80916000811116C02B
S113078080912D0390912E03069781F4C0E6D0E06A
S11307908F810E94A2009E818981981304C081E008
S11307A08093600003C082E08093600080916000C9
S11307B08823A9F040912D0350912E0320916200CB
S11307C0309163004217530751F4813011F40E94B1
S11307D0240180916000823011F40E949000809185
S11307E02D0390912E038F3F910528F40196909349
S11307F02E0380932D03FF91EF91DF91CF91BF9151
S1130800AF919F918F917F916F915F914F913F91A4
S11308102F910F900FBE0F901F9018951F920F925B
S11308200FB60F9211242F933F934F935F936F93BF
S11308307F938F939F93AF93BF93EF93FF93809195
S11308402F0390913003209164003091650082174A
S1130850930730F00E9490008AB18F7D8AB90CC052
S1130860FC01EB59FE4F80818CB9EFE2F3E080810B
S11308709181019691838083FF91EF91BF91AF9114
S11308809F918F917F916F915F914F913F912F91A4
S11308900F900FBE0F901F9018951F920F920FB6D6
S11308A00F9211242F933F934F935F936F937F93F2
S11308B08F939F93AF93BF93EF93FF9380916000C7
S11308C0833099F484E08093600015BCEFE2F3E098
S11308D080819181DC01AB59BE4F2C912CB92AB196
S11308E020622AB9019691838083809160008230CE
S11308F018F40E94900015BCFF91EF91BF91AF9145
S11309009F918F917F916F915F914F913F912F9123
S11309100F900FBE0F901F9018958AB188618AB905
S113092080B58E6880BD89E189B910BC8AB18068C0
S11309308AB908950E948D040E9490008FEF84BBB1
S1130940789480E090E0B09B04C021E02093C90239
S113095002C01092C902B19B04C021E02093CA02D4
S113096002C01092CA02B29B04C021E02093CB02C1
S113097002C01092CB02B39B04C021E02093CC02AE
S113098002C01092CC02B49B04C021E02093CD029B
S113099002C01092CD02879B04C021E02093CE02B6
S11309A002C01092CE02809B04C021E02093CF02AB
S11309B002C01092CF02819B04C021E02093D00298
S11309C002C01092D002829B04C021E02093D10285
S11309D002C01092D102839B04C021E02093D20272
S11309E002C01092D202849B04C021E02093D3025F
S11309F002C01092D302859B04C021E02093D4024C
S1130A0002C01092D402869B04C021E02093D50238
S1130A1002C01092D5022091DD02211104C025B339
S1130A202E7F25BB03C025B3216025BB2091DE02A8
S1130A30211104C025B32D7F25BB03C025B322603B
S1130A4025BB2091DF02211104C025B32B7F25BBD8
S1130A5003C025B3246025BB2091E002211104C00A
S1130A6025B3277F25BB03C025B3286025BB209170
S1130A70E102211104C025B32F7E25BB03C025B399
S1130A80206125BB2091E202211104C025B32F7DF2
S1130A9025BB03C025B3206225BB2091E3022111AD
S1130AA004C025B32F7B25BB03C025B3206425BB1D
S1130AB02091E402211104C025B32F7725BB03C084
S1130AC025B3206825BB883E23E092079CF0E7E627
S1130AD0F2E08081918101969183808381319742F4
S1130AE038F0109268021092670280E090E002C031
S10F0AF080E090E0019627CFF894FFCF3F
S9030000FC
