:100000000C942A000C9447000C9447000C94470071
:100010000C94F1020C9447000C9447000C94470098
:100020000C9447000C9447000C9447000C94470034
:100030000C9447000C9467020C94B5020C94470092
:100040000C9447000C9447000C9447000C94470014
:100050000C94470011241FBECFE5D8E0DEBFCDBF12
:1000600010E0A0E6B0E0ECE7F8E002C005900D92E9
:10007000A236B107D9F723E0A2E6B0E001C01D9295
:10008000AA33B207E1F70E943F030C943C040C949E
:1000900000008CB98AB180628AB90895AC0120E071
:1000A00030E080E090E012C0BC016427752760FF5B
:1000B00007C09695879561E0862760EA962702C07B
:1000C00096958795569547952F5F3F4F2830310578
:1000D00058F30895CF93DF939C012627C92FDD277E
:1000E000C90199270E944E008C279D27DF91CF914F
:1000F0000895EF92FF920F931F93CF93DF937C01AC
:100100008B01C0E0D0E08FEF9FEF07C0F701EC0F4D
:10011000FD1F60810E946A002196C017D107B0F3CD
:10012000DF91CF911F910F91FF90EF900895EAE238
:10013000F1E081E08283108211820895CF93DF93F2
:1001400020912A01211151C020912C0120933002CD
:1001500020E1209331029093320280933302709316
:10016000340260933502862F880F8093360280E038
:1001700090E0C7E0D0E011C0FC01EE0FFF1FE40FDC
:10018000F51F2181DE01A05DBD4F2C932081FE0172
:10019000EF5CFD4F2083229601968617970760F348
:1001A000BE0180E392E00E947900EAE2F1E0DE0124
:1001B000A05DBD4F8C93DE01AF5CBD4F9C9322963A
:1001C000D683C58381E0808380E180932F0388E01C
:1001D00090E09483838381E090E09093390380934F
:1001E0003803809130020E944900DF91CF91089539
:1001F0000F931F93CF93DF93EAE2F1E082E08183D4
:1002000003811481E8012197BE0181E391E00E94FE
:100210007900AC015527C65DDE4F2F8130E04217D3
:10022000530709F03FC1292F30E0F801E65DFE4F8A
:10023000878190E02817390709F034C180912F0396
:10024000813009F04AC0EAE2F1E097818281981397
:1002500029C180913201813009F024C1809133019C
:1002600090E0055011098017910709F01BC140E08B
:1002700050E021E030E063E070E025C0FB01E65D86
:10028000FE4F878190E082239323892B49F0E091F0
:100290003203F0913303E40FF51F81E0808307C040
:1002A000E0913203F0913303E40FF51F1082220F27
:1002B000331F211581E0380721F46F5F7F4F21E064
:1002C00030E04F5F5F4F80913403909135034817C2
:1002D0005907A0F210922B01E5C0833009F044C009
:1002E000EAE2F1E0978182819813DCC080913201CB
:1002F000833009F0D7C02091330130E0809134037E
:1003000090913503880F991F2817390709F0CAC043
:1003100020E030E043E050E01DC0E0913003F09178
:100320003103C901880F991FE80FF91FDA01A55D94
:10033000BE4F17966C91DA01A65DBE4F17968C9151
:1003400090E0982F8827862B918380834E5F5F4FA4
:100350002F5F3F4F80913403909135032817390761
:10036000E0F210922B019EC0853031F5EAE2F1E017
:1003700097818281981396C080913201853009F06F
:1003800091C0909133018091320298138BC090916B
:10039000340180913302981385C09091350180918A
:1003A000340298137FC090913601809135029813E2
:1003B00079C010922B0176C0863031F5EAE2F1E087
:1003C0009781828198136EC080913201863009F046
:1003D00069C09091330180913202981363C090916B
:1003E00034018091330298135DC090913501809162
:1003F0003402981357C090913601809135029813BA
:1004000051C010922B014EC08F3031F5EAE2F1E07D
:1004100097818281981346C0809132018F3009F014
:1004200041C0909133018091320298133BC090916A
:10043000340180913302981335C090913501809139
:10044000340298132FC09091360180913502981391
:1004500029C010922B0126C0803121F5EAE2F1E09B
:100460009781828198131EC0809132018031D1F42E
:100470009091330180913202981314C0909134010D
:100480008091330298130EC090913501809134020F
:10049000981308C09091360180913502981302C0DC
:1004A00010922B01DF91CF911F910F910895EAE2F5
:1004B000F1E084E0808381E0818308958DE783BD4E
:1004C00014BC8CE085BD89B7806889BF08951F92F0
:1004D0000F920FB60F9211242F933F934F935F9378
:1004E0006F937F938F939F93AF93BF93EF93FF93FC
:1004F00080912A01823041F52091360330913703F3
:100500008CB1F901E65DFE4F878380912D019091BA
:100510002E0101972817390759F489EE93E090933B
:1005200061008093600083E080932A010E94F800BC
:1005300080913603909137038F3F910528F40196FF
:100540009093370380933603FF91EF91BF91AF9162
:100550009F918F917F916F915F914F913F912F91DB
:100560000F900FBE0F901F9018951F920F920FB60D
:100570000F9211242F933F938F939F93EF93FF93A9
:10058000809138039091390320912F0130913001EF
:100590008217930778F01092370310923603109267
:1005A00061001092600082E080932A018AB18F7D01
:1005B0008AB90CC0FC01E05DFD4F80818CB9E8E395
:1005C000F3E080819181019691838083FF91EF9187
:1005D0009F918F913F912F910F900FBE0F901F9081
:1005E00018951F920F920FB60F9211242F933F93DD
:1005F0004F935F936F937F938F939F93AF93BF932B
:10060000EF93FF938091600090916100883E93404A
:1006100059F40E9457028091600090916100019608
:1006200090936100809360008091600090916100E0
:10063000883E23E0920728F401969093610080930E
:100640006000FF91EF91BF91AF919F918F917F914A
:100650006F915F914F913F912F910F900FBE0F902F
:100660001F9018958AB188618AB980B58E6880BD5F
:1006700089E189B910BC8AB180688AB908950E945D
:1006800032030E9497000E945E0278948FEF84BB31
:10069000B09B04C081E08093C60002C01092C600E7
:1006A000B19B04C081E08093C70002C01092C700D4
:1006B000B29B04C081E08093C80002C01092C800C1
:1006C000B39B04C081E08093C90002C01092C900AE
:1006D000B49B04C081E08093CA0002C01092CA009B
:1006E000879B04C081E08093CB0002C01092CB00B6
:1006F000809B04C081E08093CC0002C01092CC00AB
:10070000819B04C081E08093CD0002C01092CD0097
:10071000829B04C081E08093CE0002C01092CE0084
:10072000839B04C081E08093CF0002C01092CF0071
:10073000849B04C081E08093D00002C01092D0005E
:10074000859B04C081E08093D10002C01092D1004B
:10075000869B04C081E08093D20002C01092D20038
:1007600080912A01811133C02FEF89E698E1215051
:1007700080409040E1F700C00000E6ECF0E081E04E
:10078000868F178E10A281A382A313A214A285A321
:1007900016A287A3E2E6F0E08AE090E091838083EE
:1007A0008BE090E0938382838CE090E09583848358
:1007B0008DE090E0978386838EE090E0918780873C
:1007C000AF0165E070E08AE090E00E949E008091B9
:1007D0002A01833009F042C080912B01811136C07B
:1007E0008091DE00811104C085B38F7E85BB03C07C
:1007F00085B3806185BB8091DF00811104C085B322
:100800008F7D85BB03C085B3806285BB8091E0008E
:10081000811104C085B38F7B85BB03C085B3806421
:1008200085BB8091E100811104C085B38F7785BBC2
:1008300003C085B3806885BB85B3816085BB85B304
:100840008D7F85BB85B38B7F85BB06C085B38260FA
:1008500085BB85B38E7F85BB0E94970080912A015E
:10086000843009F015CF85B3846085BB85B38E7F56
:0C08700085BB0E9497000CCFF894FFCFCE
:02087C00E9038E
:00000001FF
